:1000000086C30000A1C300009FC300009DC3000081
:100010009BC3000099C3000097C3000095C3000074
:1000200093C3000091C300000C94CD130C942914C9
:100030008BC3000089C3000087C3000085C3000094
:1000400083C3000081C300007FC300007DC30000A4
:100050007BC300006AC4000077C3000075C30000C2
:1000600073C3000071C300006FC300006DC30000C4
:100070006BC3000069C3000067C3000065C30000D4
:1000800063C3000061C300005FC300005DC30000E4
:100090005BC3000059C3000057C3000055C30000F4
:1000A00053C3000051C300004FC30000C512CB1260
:1000B000D412DA12E012E612EC12F2122413261312
:1000C00029132D133113341338133C133A303030C5
:1000D000303030303146460A000A003A00270F27F8
:1000E0000FDF0FA310CD0F8810CB0F8510DD0FA0F1
:1000F00010CF0F8B10D30F9110D70F9710D90F9AE5
:1001000010DB0F9D10A30F5310A10F5110E10FA68C
:1001100010270F270F4011340F4711350FC70F7FDE
:1001200010C90F8210C810CC10270F270F270F27D8
:100130000F270F270F270F270FC810CC10C30F79D9
:1001400010C50F7C106111370FAB0F5B10D911DC9C
:10015000116F0F1F106B0F1B10410FF10F670F175F
:10016000103F0FEF0F5411360F6E11380F570F0756
:1001700010550F0510AD0F5D10B30F6310B90F6A66
:1001800010DF11E211E30FA9103D0FED0F610F1108
:1001900010430FF30F470FF70F490FF90F270F27E2
:1001A0000F270F270F4B0FFB0F4F0FFF0F510F01A3
:1001B00010530F0310B70F6710B50F6510A50F553B
:1001C000105D0F0D10690F1910450FF50F5F0F0F20
:1001D00010630F1310CE10270FCE10270F6D0F1DB9
:1001E00010650F15104D0FFD0F590F09105B0F0B08
:1001F00010A90F5910B10F6110730F2310750F253F
:1002000010770F2710790F29107B0F2B10D10F8E2D
:1002100010910F41107D0F2D107F0F2F10810F3186
:1002200010830F3310710F2110AF0F5F10270F27AE
:100230000F260F260F260F260F260F260F260F2616
:100240000F260F260F260F260F260F260F260F2606
:100250000F260F260F260F260F260F260F260F26F6
:100260000F270F270F260F260F260F260F260F26E4
:100270000F260F260F260F260F260F260F260F26D6
:100280000F260F260F260F260F260F260F260F26C6
:100290000F260F260F260F260F260F260F260F26B6
:1002A0000F8F113B0F7B11390F82113A0F270F2748
:1002B0000FD50F9410260F260F260F260F9C113CEA
:1002C0000F270F270F270F270F270F270F270F277E
:1002D0000FEB0FB510260F260FF2102E0FFF102F69
:1002E0000FD8102C0FE5102D0FA70F5710270F2731
:1002F0000F270F270F850F35100C11300F191131F3
:100300000F2611320F3311330FE90FB210260F26CB
:100310000F730F2310750F2510770F2710790F29F2
:10032000107B0F2B10260F260F260F260F7D0F2D6B
:10033000107F0F2F10810F3110830F3310710F2199
:1003400010E70FAF10260F260F890F39108B0F3BC8
:10035000108D0F3D108F0F3F10910F41109D0F4DCD
:10036000109F0F4F10930F4310950F4510970F4795
:1003700010990F49109B0F4B10E50FAC10270F275A
:100380000F260F260F260F260F260F260F260F26C5
:100390000F260F260F260F260F260F260F260F26B5
:1003A0000F260F260F710F2110260F260F260F265E
:1003B0000F270F270F260F260FD50F9410260F2675
:1003C0000F260F260F260F260F260F260F260F2685
:1003D0000F260F260F260F260F270F270F270F2771
:1003E0000FB30F6310A10F5110260F260F260F26F3
:1003F0000F260F260F260F260F260F260F260F2655
:100400000F260F260F260F260F260F260F270F2742
:100410000F730F2310750F2510770F2710A10F51A1
:1004200010260F260F270F270F260F260F260F2621
:100430000F260F260F260F260F260F260F270F2712
:100440000F270F270F270F270F790F29107B0F2B4F
:10045000107D0F2D10BB0F6D10260F260F260F26B7
:100460000F260F260F260F260F260F260F260F26E4
:100470000F260F260FD410270FD410270F270F2772
:100480000F7F0F2F10810F3110830F3310BD0F70AE
:1004900010260F260FB810280F260F260F260F261E
:1004A0000F260F260F260F260F260F260F260F26A4
:1004B0000F260F260F270F270F270F270F270F278E
:1004C0000FBF0F7310C10F7610260F260F270F27AF
:1004D0000F270F270F270F270F270F270F270F276C
:1004E0000F270F270F270F270F270F270F270F275C
:1004F0000F270F270F270F270F270F270F270F274C
:100500000F270F270F270F270F270F270F270F273B
:100510000F270F270F270F270F270F270F270F272B
:100520000F270F270F270F270F270F270F270F271B
:100530000F270F270F270F270F270F270F270F270B
:100540000F270F270F270F270F270F270F270F27FB
:100550000F270F270F270F270F270F270F270F27EB
:100560000F270F270F270F270F270F270F270F27DB
:100570000F270F270F270F270F270F270F270F27CB
:100580000F270F270F270F270F270F270F270F27BB
:100590000F270F270F270F270F270F270F270F27AB
:1005A0000F270F270F270F270FC3102B0F270F27FA
:1005B0000F270F270F270F270F270F270F270F278B
:1005C0000F270F270F270F270F270F270F270F277B
:1005D0000F270F270F270F270F270F270F270F276B
:1005E0000FBE102A0FB810280F270F270F270F272D
:1005F0000F270F270F270F270F270F270F270F274B
:100600000F270F270F270F270F270F270F270F273A
:100610000F270F270F270F270FB910290F000100F1
:1006200000F506120002000094062200220000B627
:10063000063F00210000A606090003000090060402
:1006400001030904860608020309044E0636360330
:100650004500720067006F0044006F0078002000C2
:100660004500720067006F006E006F006D0069004A
:10067000630020004B006500790062006F0061009C
:1006800072006400000008034400490059000000A3
:100690000403090409022200010100C03209040018
:1006A000000103010100092111010001223F00079F
:1006B00005830308000105010906A10175019508DC
:1006C000050719E029E71500250181029501750844
:1006D0008103950575010508190129059102950108
:1006E000750391039506750815002568050719001F
:1006F00029688100C01201000200000020501D285E
:1007000060000101020001000001C1060000112487
:100710001FBECFEFDAE0DEBFCDBF11E0A0E0B1E059
:10072000E0E9F2E302C005900D92AE3FB107D9F7C0
:1007300013E0AEEFB1E001C01D92A233B107E1F7C3
:100740000E9485150C9446195BCC1F93CF93DF93C1
:10075000EC0119818881811B8530B8F0812F90E0F0
:1007600002968F3F910509F010F41E5F01C01FEF44
:1007700084E0189FB00111248A819B810E941C177C
:10078000009729F018839B838A8380E001C081E071
:10079000DF91CF911F910895CF93DF93A62FFC0196
:1007A00061814A2F50E0262F30E021503109421755
:1007B00053079CF4EC01EA81FB81440F551F440F61
:1007C000551FE40FF51F4481558166817781408371
:1007D000518362837383AF5FE2CF61506183DF91A6
:1007E000CF91B3CFEF92FF920F931F93CF93DF93ED
:1007F000EC017B018A014115510509F189818F3F87
:1008000001F18F5F8983CE01A0DF9981882319F0E0
:100810009150998316C0EA81FB81DF0184E0989FA3
:10082000A00DB11D11241497ED92FC92898194E0E2
:10083000899FE00DF11D112434971383028380E01A
:1008400001C081E0DF91CF911F910F91FF90EF9058
:100850000895AB01BC0186E092E0C4CFCF938091B4
:100860000402909105020196909305028093040280
:10087000C0E080910702C817D8F4E0910802F09117
:10088000090284E0C89FE00DF11D1124808191814F
:10089000009749F40280F381E02D09956C2F86E0E2
:1008A00092E07ADF03C0019791838083CF5FE1CF2D
:1008B000CF910895CF938091FE019091FF01019611
:1008C0009093FF018093FE01C0E080910102C81760
:1008D000D8F4E0910202F091030284E0C89FE00D99
:1008E000F11D112480819181009749F40280F381E8
:1008F000E02D09956C2F80E092E04EDF03C0019758
:1009000091838083CF5FE1CFCF9108958AEF87BD38
:1009100082E084BD93E095BD80936E0080E00895F1
:1009200080910A0290910B0208951F920F920FB6C8
:100930000F9211248F939F9380910A0290910B0242
:10094000019690930B0280930A029F918F910F90D2
:100950000FBE0F901F901895DF92EF92FF920F93AA
:100960001F93CF93DF9380910D02D82ED29430EF56
:10097000D322D594D594D594D594982F95959595C3
:10098000959595950D2D090F97FD03C005300CF435
:100990006FC08F7010910C02602F772767FD7095E4
:1009A00081110FC0812F90E0861B970B9C012E5F59
:1009B0003F4F2F3F310509F098F5C2E0C10FC01B32
:1009C00036C040E050E0812F90E0861B970BED2C65
:1009D000FF24E7FCF0942D2D240F30E04F5F5F4F94
:1009E00028173907ACF4C0910E02D0910F02F9011B
:1009F000EE19FF09EE0FFF1FEC0FFD1FD901AA0F23
:100A0000BB1FAC0FBD1F2D913C9131832083E3CFE1
:100A1000802F8295807F80930D02053018F628C0C4
:100A20008F3F910519F010F081E023C0CFEF6C2FBC
:100A300070E0660F771F80910E0290910F020E9466
:100A40001C17009789F330910D02232F25952595CA
:100A500025952595211B2C0F2295207F3F70322B49
:100A600030930D02C0930C0290930F0280930E02FC
:100A700080E0DF91CF911F910F91FF90EF90DF9079
:100A80000895EF92FF920F931F93CF93DF9380917E
:100A90001102F82EF29490EFF922F594F594F59462
:100AA000F594982F95959595959595950F2D090FFA
:100AB00097FD03C005300CF475C08F7010911002C3
:100AC000602F772767FD709581110FC0812F90E00F
:100AD000861B970B9C012E5F3F4F2F3F310509F07E
:100AE000C8F5C2E0C10FC01B3CC040E050E0212F60
:100AF00030E0261B370BCF2DDD27C7FDD095EF2C1F
:100B0000E40E8E2D90E04F5F5F4F82179307CCF479
:100B1000A0911202B09113028C1B9D0BFC01EE0FF1
:100B2000FF1FE80FF91FEA0FFB1F83E0E89EA00DEF
:100B3000B11D11248D919D91AC9180839183A283ED
:100B4000DECF802F8295807F80931102053008F0E0
:100B5000BDCF28C08F3F910519F010F081E023C070
:100B6000CFEF83E0C89FB0011124809112029091D1
:100B700013020E941C17009789F330911102232F52
:100B80002595259525952595211B2C0F2295207FB0
:100B90003F70322B30931102C093100290931302D6
:100BA0008093120280E0DF91CF911F910F91FF900F
:100BB000EF900895E1E1F2E0808191E0980F9F705D
:100BC000807F892B80835DCFF999FECF92BD81BD57
:100BD000F89A80B508950F931F93CF93DF931F92D8
:100BE000CDB7DEB78C016983EFDF6981681791F0BB
:100BF0006F3F19F4FD98FC9A06C08F3F11F4FD9ADF
:100C000001C0FD98FC9812BD01BD60BDF894FA9A30
:100C1000F99A78940F90DF91CF911F910F910895D9
:100C20000F931F93CF93DF9320911102422F429590
:100C3000407F45954595459545958091100290E0FA
:100C4000841B910947FD9395259525952595259517
:100C5000332727FD30958217930751F4809127039E
:100C60008E7F80932703DF91CF911F910F9108957D
:100C7000E0911202F091130223E04202E00DF11D17
:100C800011248081982F9F7381F482958695869593
:100C900083709181292F220F220F6281822B9295DE
:100CA00096959695937097DFE6C0913009F08DC0C8
:100CB000828181110BC07EDF80910D0291E0980F3F
:100CC0009F70807F892B80930D0246DE80910D02FC
:100CD0008295807F8595859585958595880F990B5B
:100CE00000910E0210910F02080F191FF801808168
:100CF00091816ADF909111029295907F95959595DB
:100D000095959595C0911202D0911302F3E09F0240
:100D1000C00DD11D1124288122952695269523707A
:100D20009981392F330F330F682F832F822B9295A0
:100D30009695969593704FDF4881342F329536956E
:100D4000369533702981522F550F550F852F832BE0
:100D5000922F9295969596959370F8012081318106
:100D60004F7382179307A8F401969370282F22954A
:100D7000220F220F207C242B28839295990F990F04
:100D8000907C86958695892B8983808191810196B7
:100D900016C081509C4F9370282F2295220F220F4E
:100DA000207C242B28839295990F990F907C86950F
:100DB0008695892B8983F8018081918101979183A0
:100DC00080838A8181508A8357C0923009F053C052
:100DD000C0910D02C295C07FC595C595C595C595B5
:100DE0008C2F880F990BE0910E02F0910F02E80F03
:100DF000F91F808181110AC0DDDECF5FCF70809145
:100E00000D02807F8C2B80930D02A6DD8091110254
:100E10008295807F8595859585958595E0911202CF
:100E2000F091130223E08202E00DF11D1124808174
:100E300082958695869583709181292F220F220FA6
:100E40006281822B9295969596959370C4DE8091DF
:100E50000D028295807F8595859585958595880F6E
:100E6000990BE0910E02F0910F02E80FF91F8081BB
:100E70008150808301C09EDE60E176E081E090E0F9
:100E8000DF91CF911F910F91E4CC1F93CF93DF930C
:100E900000D0CDB7DEB7182F20911102322F307F4E
:100EA00030512F70232B2093110269839A83E9DD3F
:100EB0003091110269819A81882349F0832F807FC4
:100EC000805F3F70382B3093110281E030C0209159
:100ED000100221503595359535953595231BE091B8
:100EE0001202F091130283E0289FE00DF11D1124FE
:100EF000812F8295880F880F807C80839295990F2F
:100F0000990F907C812F86958695892B81836283AA
:100F10008091270380FD0AC060E176E080E090E0E8
:100F200098DC8091270381608093270380E00F90F5
:100F30000F90DF91CF911F910895E9EBF0E0808150
:100F40008C7F80838CE08093B800089584EA80933E
:100F5000BC008091BC0087FFFCCF8091B900887FE6
:100F6000883049F08091B900887F803121F08091EC
:100F7000B900887F089580E0089584E98093BC00DB
:100F80008091BC0084FDFCCF08958093BB0084E871
:100F90008093BC008091BC0087FFFCCF8091B9009A
:100FA000887F883171F08091B900887F883249F05C
:100FB0008091B900887F803421F08091B900887FCA
:100FC000089580E0089524EC2093BC002091BC009B
:100FD00027FFFCCF2091BB00FC0120838091B9004A
:100FE000887F803521F08091B900887F089580E066
:100FF000089560E080E090E048DF81112AC060E061
:1010000081E090E042DF811124C063E082E090E063
:101010003CDF81111EC06FEF83E090E036DF81116D
:1010200018C061E084E090E030DF811112C06FEF02
:1010300085E090E02ADF81110CC085E090E090937C
:1010400029038093280310922B0310922A0380E037
:10105000089581E00895CF93DF9380E090E0B4DDC0
:10106000811114C081E090E0AFDD81110FC082E0FA
:1010700090E0AADD833051F483E090E0A5DD8F3F5E
:1010800029F484E090E0A0DD813019F0DF91CF9168
:10109000B0CF85E090E098DDC5E0D0E08F3F41F033
:1010A000CE01019691DDC80FD11DCE018DDDF6CFA9
:1010B000D0932903C093280310922B0310922A0384
:1010C00080E0DF91CF910895682F81E00C94B412F5
:1010D000682F80E00C94B412CF93DF9381EE0E94CE
:1010E0001513D82F85EE0E941513C82F61EE80E0EE
:1010F0000E94B41265EE80E00E94B4120E94751343
:1011000069E381E00E94B4120E94751369E380E0F4
:101110000E94B4120E94751361EE8D2F0E94B412CA
:1011200065EE8C2F0E94B412DF91CF910C94751351
:10113000CF92DF92EF92FF920F931F93CF93DF93A3
:1011400000D0CDB7DEB7982F92959F7099838F709E
:101150008A838E010F5F1F4F7E0183E0E80EF11C32
:1011600087E2C82EF8018081811102C0C08207C0C9
:101170008A3010F4835E01C08650F8018083F80144
:10118000D1908F016D2D81E00E94B4120E947513E1
:101190006D2D80E00E94B4120E9475130E151F057C
:1011A00009F70F900F90DF91CF911F910F91FF9052
:1011B000EF90DF90CF900C947513EF92FF920F9306
:1011C0001F93CF93DF93EC01FE016491662309F432
:1011D000A0C067FD03C0062F10E036C0862F8295A1
:1011E00086958770863061F46F71F0E46F9F80019F
:1011F00011242196FE016491862F8F73082B24C041
:10120000862F82958F708E30B9F4062F10E0102F44
:1012100000271295107FFE01319684912296FE01DF
:101220006491962F9F73092B8F7390E4899FF0012F
:1012300011240E2B1F2B08C06695669566956E319E
:1012400009F061C023965FC0862F90E08017910758
:10125000F1F5603309F459C08FEC860F893018F42A
:101260004DEEF42E10C08FEB860F8A3130F433EC44
:10127000F32EF60EEE24E39418C08FE9860F8A3120
:1012800020F423EAF22EF60E42C068506837F8F4D4
:1012900070E0FB01EB57FE4FE080FB01E35FFE4F88
:1012A000F080FF20A1F0EE2021F061EE81E00E94AD
:1012B000B4126F2D81E00E94B4120E947513EE20CB
:1012C00021F061EE80E00E94B4126F2D17C062EE33
:1012D00081E00E94B4120E9475136EE281E00E94C8
:1012E000B4120E9475136EE280E00E94B4120E9454
:1012F0007513812F1DDF802F1BDF62EE80E00E94BF
:10130000B4120E94751321965FCF97E2F92EE12C5B
:10131000D0CFDF91CF911F910F91FF90EF90089563
:10132000FC0180810895FC01849108958F929F9221
:10133000AF92BF92CF92DF92EF92FF920F931F93E3
:10134000CF93DF936C01EB017A0180E1982E8A0143
:101350000F5F1F4FC017D10769F097012C1B3D0B82
:10136000C9010196492D50E08417950718F4992476
:101370009394920E8D2E8C0E890C8BED90E01DDFD8
:10138000892DD6DE8D2FD4DE8C2FD2DE80E0D0DE0C
:101390009E01822F8C1B891558F459019FEFA91AC1
:1013A000B90AC901F6010995880EC2DE9501F1CF8F
:1013B000C90DD11D882D8195BBDE89ED90E0FDDE44
:1013C000C017D10709F0C6CF8CEC90E0DF91CF9128
:1013D0001F910F91FF90EF90DF90CF90BF90AF9053
:1013E0009F908F90EACEF89481E08093E00080E2B5
:1013F0008093D8001092C9008FE19EE40197F1F725
:1014000000C000001DBA109268001CBC10BE1FBABC
:1014100010927A0010926E0010926F00109271007C
:10142000109272001092C900ECEBF0E0108214B838
:1014300017B81AB81DB810BA108215B818B81BB86A
:101440001EB811BA0C94003F0895AB0161152BE052
:10145000720710F04FEF5AE04817590720F0BC010F
:1014600080E999E063CF0895AB01611520E8720728
:1014700010F04FEF5FE74817590720F0BC0183E9F0
:1014800099E054CF0895AB01611524E0720710F084
:101490004FEF53E04817590720F0BC0184EE95E068
:1014A00045CF0895CF93C0911502809114028C1BF3
:1014B0008530E0F08C2F90E002968F3F910509F087
:1014C00010F4CE5F01C0CFEF6C2F70E0660F771F76
:1014D00080911602909117020E941C17009741F00C
:1014E000C0931402909317028093160280E001C00B
:1014F00081E0CF9108952091150230E090E08217AD
:10150000930774F421503109281B390B220F331F24
:10151000E0911602F0911702E20FF31F8181089506
:1015200080E0089540911502209116023091170233
:1015300090E0941769F02E5F3F4FF9013297508188
:10154000581304C08FEF840F891B08959F5FF1CF5C
:101550008FEF0895EF92FF920F931F93CF93DF9336
:10156000082FF62E142F862FDDDF209115028F3FD6
:1015700079F030E021503109281B3109220F331F47
:10158000E0911602F0911702E20FF31F118337C0AA
:101590002F3FA1F1E1E0E20FE0931502E22EE01A05
:1015A000F0E0CE2DD0E0CE17DF0734F080911502A9
:1015B00081508093150222C075DF8111F7CF909181
:1015C00015029150E0911602F0911702E91660F4AD
:1015D000E90FF11DE90FF11DDF0112970D90BC918C
:1015E000A02DB183A083EDCFDE01AA0FBB1FAE0FEC
:1015F000BF1FFC9211961C93802F01C08FEFDF91CB
:10160000CF911F910F91FF90EF900895CF938ADFB4
:10161000C82F8F3F09F1209115029FEF920F892F5C
:101620008C1B30E021503109482F50E042175307FE
:1016300074F4E0911602F0911702440F551FE40F65
:10164000F51F42815381518340838F5FEDCF90938B
:10165000150228DF8C2F01C08FEFCF910895809164
:1016600015020895D6D1811108C02BD1811107C070
:10167000F2DC882331F083E0089581E0089582E070
:10168000089580E00895CF93DF93EC0189D2811112
:1016900006C0CE0141D1882321F082E003C081E061
:1016A00001C080E0DF91CF910895823031F0833026
:1016B00031F0813029F4259A0895269A0895279AC1
:1016C0000895823031F0833031F0813029F425984B
:1016D00008952698089527980895282FCB01BA01D8
:1016E000223091F02330F1F0213049F520E030E054
:1016F0004FE753E40E9491160E943C1670E07093ED
:10170000890060938800089520E030E04FE753E4BB
:101710000E9491160E943C1670E070938B006093BB
:101720008A00089520E030E04FE753E40E949116CC
:101730000E943C1670E070938D0060938C000895B9
:1017400081E0B3DF82E0B1DF83E0AFCF81E0B9DFDA
:1017500082E0B7DF83E0B5CFCF92DF92EF92FF92C6
:101760006B017C01AB01BC0181E0B7DFB701A601D1
:1017700082E0B3DFB701A60183E0FF90EF90DF9036
:10178000CF90ABCF6DEC7CEC8CE49DE3E5DFD8CF64
:10179000DDDF60E070E080E09FE3DECF1F93CF935A
:1017A000DF938FE39CE90197F1F700C0000013B1CC
:1017B000D3B1D074C3B1C078C9DF9FE727E288E016
:1017C000915020408040E1F700C00000B9DF9FE762
:1017D00027E288E0915020408040E1F700C00000FF
:1017E000B5DF9FE727E288E0915020408040E1F795
:1017F00000C00000A5DF9FE727E288E0915020406D
:101800008040E1F700C00000A1DF9FE727E288E009
:10181000915020408040E1F700C0000091DF9FE739
:1018200027E288E0915020408040E1F700C00000AE
:101830008DDF9FE727E288E0915020408040E1F76C
:1018400000C0000015FD259ADD2311F082E02DDF98
:10185000CC2329F083E0DF91CF911F9126CFDF9138
:10186000CF911F9108958FE790E090938900809326
:1018700088002FE782E490E1215080409040E1F71A
:1018800000C000008FE790E090938B0080938A0067
:101890002FE782E490E1215080409040E1F700C0C2
:1018A00000008FE790E090938D0080938C002FE7ED
:1018B00082E490E1215080409040E1F700C00000B8
:1018C0000895CF9343DB80E460DBC82F811120C0F3
:1018D00080E05BDB80E859DB8FEF57DB4EDB36DBEC
:1018E00080E453DBC82F811113C08CE04EDB80E80D
:1018F0004CDB8FEF4ADB41DB29DB80E446DBC82F82
:10190000811106C084E141DB8FEF3FDB8FEF3DDBD0
:1019100034DB8C2FCF9108958F929F92BF92CF92FC
:10192000DF92EF92FF920F931F93CF93DF931F925B
:10193000CDB7DEB77C01C5DFB82E882369F096E00D
:10194000F70187E011928150E9F791508EE0E80E9F
:10195000F11C9111F5CF4FC000E010E0CC24C394EE
:10196000D12CF4DA80E411DB82E10FDBC601002E1A
:1019700001C0880F0A94EAF7809507DBFEDAE6DA01
:1019800080E403DB83E101DBE1DA81E4FEDACE010E
:10199000019619DBF2DA8981882E912C60E070E0E3
:1019A00045E050E0D701A00FB11FFD01E60FF71F82
:1019B0009401042E02C0359527950A94E2F7217010
:1019C000332781E028272170208341505109625F2D
:1019D0007F4F4F3F8FEF580741F70F5F1F4F073083
:1019E000110509F0BECFB2DA80E4CFDA82E1CDDAB8
:1019F0008FEFCBDAC2DA8B2D0F90DF91CF911F9151
:101A00000F91FF90EF90DF90CF90BF909F908F90BD
:101A10000895E1E6F0E080E88083108256985E98B1
:101A200024982C9893DE89EA8093800089E0809343
:101A3000810083DA3F9885E08A95F1F70000579896
:101A400085E08A95F1F70000549885E08A95F1F7D2
:101A50000000559885E08A95F1F700006E9885E0C2
:101A60008A95F1F70000479A85E08A95F1F7000022
:101A70005F9A85E08A95F1F700005C9A85E08A9587
:101A8000F1F700005D9A85E08A95F1F70000769AFB
:101A900085E08A95F1F70000879885E08A95F1F74F
:101AA0000000869885E08A95F1F70000859885E02A
:101AB0008A95F1F70000849885E08A95F1F7000097
:101AC000819885E08A95F1F70000809885E08A95F5
:101AD000F1F70000209885E08A95F1F70000219841
:101AE00085E08A95F1F70000229885E08A95F1F764
:101AF0000000239885E08A95F1F70000529885E070
:101B00008A95F1F70000539885E08A95F1F7000077
:101B10003E9885E08A95F1F700008F9A85E08A95D6
:101B2000F1F700008E9A85E08A95F1F700008D9A12
:101B300085E08A95F1F700008C9A85E08A95F1F7A7
:101B40000000899A85E08A95F1F70000889A85E07F
:101B50008A95F1F70000289885E08A95F1F7000052
:101B6000299885E08A95F1F700002A9885E08A9502
:101B7000F1F700002B9885E08A95F1F700005A985C
:101B800085E08A95F1F700005B9885E08A95F1F78A
:101B90000000469885E08A95F1F7000080E00895FE
:101BA000FC01209A85E08A95F1F700008FB18095BD
:101BB000881F8827881F87838FB191E086FB88273D
:101BC00080F98927858B8FB185FB882780F9892744
:101BD00083A38FB182958170892781AB8FB1869560
:101BE0008170892787AF8FB1DF01AA5BBF4F8170FA
:101BF000892717968C93209885E08A95F1F7000045
:101C0000219A85E08A95F1F700008FB18095881FB1
:101C10008827881F80878FB186FB882780F98927CE
:101C2000868B8FB185FB882780F9892784A38FB1A4
:101C300082958170892782AB8FB1DF01A05CBF4F95
:101C40008695817089278C938FB1DF01AA5BBF4F86
:101C50008170892718968C93219885E08A95F1F7F1
:101C60000000229A85E08A95F1F700008FB18095F7
:101C7000881F8827881F81878FB186FB882780F976
:101C80008927878B8FB185FB882780F9892785A3D2
:101C90008FB182958170892783AB8FB1DF01AF5BF4
:101CA000BF4F8695817089278C938FB1DF01AA5B26
:101CB000BF4F8170892719968C93229885E08A9569
:101CC000F1F70000239A85E08A95F1F700008FB1C3
:101CD0008095881F8827881F82878FB186FB882779
:101CE00080F98927808F8FB185FB882780F9892724
:101CF00086A38FB182958170892784AB8FB1DF0174
:101D0000AE5BBF4F8695817089278C938FB1DF01C1
:101D1000AA5BBF4F817089271A968C93239885E020
:101D20008A95F1F70000529A85E08A95F1F7000054
:101D30008FB18095881F8827881F83878FB186FB86
:101D4000882780F98927818F8FB185FB882780F9C3
:101D5000892787A38FB182958170892785AB8FB141
:101D6000DF01AD5BBF4F8695817089278C938FB162
:101D7000DF01AA5BBF4F817089271B968C93529815
:101D800085E08A95F1F70000539A85E08A95F1F78E
:101D900000008FB18095881F8827881F84878FB1A6
:101DA00086FB882780F98927828F8FB185FB88275A
:101DB00080F9892780A78FB182958170892786ABAA
:101DC0008FB1DF01AC5BBF4F8695817089278C9303
:101DD0008FB1DF01AA5BBF4F817089271C968C935E
:101DE000539885E08A95F1F700003E9A85E08A9540
:101DF000F1F700008FB18095881F8827881F85879D
:101E00008FB186FB882780F98927838F8FB185FB67
:101E1000882780F9892781A78FB1829581708927CA
:101E200087AB8FB1DF01AB5BBF4F86958170892790
:101E30008C938FB1EA5BFF4F8170892785873E982D
:101E400085E08A95F1F7000080E0089508950895EF
:101E5000089508950895089508950895089508959A
:101E6000089508950895089508950895089508958A
:101E70000895089508950895089584E025C985E09A
:101E800023C986E021C987E01FC988E01DC989E010
:101E90001BC98AE019C98BE017C98CE015C98DE010
:101EA00013C98EE011C98FE00FC980E10DC981E12E
:101EB0000BC982E109C983E107C984E105C985E14C
:101EC00003C986E101C987E1FFC888E1FDC889E14E
:101ED000FBC88AE1F9C88BE1F7C88CE1F5C88DE150
:101EE000F3C887E2F1C88EE1EFC88FE1EDC880E268
:101EF000EBC881E2E9C882E2E7C883E2E5C884E290
:101F0000E3C885E2E1C886E2DFC881EEDDD887E27A
:101F1000DBC88AE3D9C88BE3D7C88CE3D5C88DE387
:101F2000D3C88EE3D1C88FE3CFC880E4CDC881E4A5
:101F3000CBC882E4C9C883E4C7C884E4C5C885E4C3
:101F4000C3C888E2C1C88CE2BFC88BE2BDC881E3C8
:101F5000BBC88FE2B9C880E3B7C886E3B5C88DE2D5
:101F6000B3C885E3B1C887E3AFC884E3ADC883E3F2
:101F7000ABC888E3A9C887E5A7C886E5A5C885E5F5
:101F8000A3C884E5A1C882E59FC881E59DC880E516
:101F90009BC88FE499C88AE297C88CE495C88DE401
:101FA00093C889E291C88AE48FC889E48DC88BE41C
:101FB0008BC88EE489C886EE87C882EE85C880EE1D
:101FC00083C884EE81C889E37FC886E67DC880E83F
:101FD0007BC881E879C88FE777C884E079C885E055
:101FE00077C886E075C887E073C888E071C889E063
:101FF0006FC88AE06DC88BE06BC88CE069C88DE063
:1020000067C88EE065C88FE063C880E161C881E180
:102010005FC882E15DC883E15BC884E159C885E19E
:1020200057C886E155C887E153C888E151C889E19E
:102030004FC88AE14DC88BE14BC88CE149C88DE19E
:1020400047C887E245C88EE143C88FE141C880E2B6
:102050003FC881E23DC882E23BC883E239C884E2DE
:1020600037C885E235C886E233C887E231D881EEC9
:102070002FC88AE32DC88BE32BC88CE329C88DE3D6
:1020800027C88EE325C88FE323C880E421C881E4F4
:102090001FC882E41DC883E41BC884E419C885E412
:1020A00017C888E215C88CE213C88BE211C881E317
:1020B0000FC88FE20DC880E30BC886E309C88DE224
:1020C00007C885E305C887E303C884E301C883E341
:1020D0000C94680888E30C94680887E50C946808F9
:1020E00086E50C94680885E50C94680884E50C94F2
:1020F000680882E50C94680881E50C94680880E51E
:102100000C9468088FE40C9468088AE20C946808C0
:102110008CE40C9468088DE40C94680889E20C94B3
:1021200068088AE40C94680889E40C9468088BE4D5
:102130000C9468088EE40C94680886EE0C94680889
:1021400082EE0C94680880EE0C94680884EE0C947F
:10215000680889E30C94680886E60C94680880E8AF
:102160000C94680881E80C9468088FE70C94680860
:102170003AC96FEF7FEF80E090E067C96FEF7FEFC4
:1021800080E090E071C96FEF7FEF80E090E07BC965
:1021900041E061E080E0DEC981E038CA42E062E00F
:1021A00080E0D8D982E081CA82E030DA82E089CA50
:1021B00066EE81E0D9D164E281E0D6D196D266EEB6
:1021C00080E0D2D164E280E0CFC166EE81E0CCD184
:1021D00067E281E0C9D189D266EE80E0C5D167E2CD
:1021E00080E0C2C166EE81E0BFD165E281E0BCD192
:1021F0007CD266EE80E0B8D165E280E0B5C166EEE3
:1022000081E0B2D166E281E0AFD16FD266EE80E0CC
:10221000ABD166E280E0A8C161EE81E0A5D164E2C5
:1022200081E0A2D162D261EE80E09ED164E280E0E2
:102230009BC166EE81E098D16DE281E095D155D2E7
:1022400066EE80E091D16DE280E08EC165EE81E0C6
:102250008BD165E281E088D148D265EE80E084D1FF
:1022600065E280E081C165EE81E07ED166E281E0D9
:102270007BD13BD265EE80E077D166E280E074C12D
:1022800064E681E071D131D264E680E06DC165EE33
:1022900081E06AD164E681E067D127D265EE80E013
:1022A00063D164E680E060C166EE81E05DD164E602
:1022B00081E05AD11AD266EE80E056D164E680E021
:1022C00053C166EE81E050D160E381E04DD10DD283
:1022D00066EE80E049D160E380E046C165EE81E0D2
:1022E00043D160E381E040D100D265EE80E03CD193
:1022F00060E380E039C16EE281E036D1F6D16EE272
:1023000080E032C165EE81E02FD16EE281E02CD118
:10231000ECD165EE80E028D16EE280E025C165EE6B
:1023200081E022D161E381E01FD1DFD165EE80E061
:102330001BD161E380E018C165EE81E015D16DE24B
:1023400081E012D1D2D165EE80E00ED16DE280E065
:102350000BC11F93CF93DF931F92CDB7DEB7182F1A
:10236000882351F090916C029F5F90936C02862FAE
:1023700069830E946408698180916C02823041F413
:10238000112341F00F90DF91CF911F910C946C08B5
:1023900011110AC0815080936C02862F0F90DF913B
:1023A000CF911F910C9468080F90DF91CF911F91EE
:1023B000089561EE81E0CDCF61EE80E0CACF65EE99
:1023C00081E0C7CF65EE80E0C4CF833411F483E0B1
:1023D0006CC90895833411F483E073C90895CF93D1
:1023E000DF931F92CDB7DEB791E0982734E5639F66
:1023F000F00111243EE0439FE00DF11D1124E20F96
:10240000F11DEE0FFF1FE90FF11DEE0FFF1FE3524D
:10241000FF4F259134912115310589F090916D027E
:102420009C7F9B7F90936D028983F9010995898137
:10243000882329F00F90DF91CF910C945A040F90CC
:10244000DF91CF9108958F929F92AF92BF92CF92DA
:10245000DF92EF92FF920F931F93CF93DF931F9220
:10246000CDB7DEB7F82EE62E242F81111DC050E027
:102470003EE0639FF0011124DF01A40FB51FA85EA9
:10248000BD4F6C9184E5689FE00DF11D1124E40FB0
:10249000F51FEE0FFF1FEE0FFF1FE152FF4F85915B
:1024A000949186529F4071F4B12C822E912C81E040
:1024B0008F25C82ED12CFEE0EF9E8001112464E50B
:1024C000A62E04C04E2D80E029C0B3942983C7D81E
:1024D00029818B1588F18B2D29830DD8F801A89EB1
:1024E000E00DF11D1124E80DF91DEE0FFF1FEC0D9D
:1024F000FD1DEE0FFF1FE352FF4F459154912981BF
:1025000046525F4011F3FF2031F0F801E80DF91D4C
:10251000E85EFD4F80834E2D682F8F2D0F90DF9149
:10252000CF911F910F91FF90EF90DF90CF90BF90D0
:10253000AF909F908F9053CF0F90DF91CF911F91CD
:102540000F91FF90EF90DF90CF90BF90AF909F9052
:102550008F900895D0D080E00895E4D091E081116B
:1025600001C090E0892F0895962F662309F45BC07F
:10257000462F50E0FA01E05EF109E830F105C0F5C0
:10258000EA5AFF4F9091780271C3882311F091604D
:1025900005C09E7F03C0882329F092609093780243
:1025A00080E008959D7FFACF882311F09460F6CFE4
:1025B0009B7FF4CF882311F09860F0CF977FEECF08
:1025C000882311F09061EACF9F7EE8CF882311F035
:1025D0009062E4CF9F7DE2CF882311F09064DECF3C
:1025E0009F7BDCCF882311F09068D8CF9F77D6CF20
:1025F000E2E7F2E020E030E04081882339F0411149
:102600000CC0F901EE58FD4F9083CACF491305C0A5
:10261000F901EE58FD4F1082C3CF2F5F3F4F319627
:102620002630310549F781E008958823A9F1482F24
:1026300050E0FA01E05EF109E830F10508F5E25AF0
:10264000FF4F8091780212C3817008958695817042
:10265000089582FB882780F9089583FB882780F9F5
:10266000089582958170089585FB882780F90895E3
:1026700086FB882780F90895881F8827881F08957A
:10268000E2E7F2E09191981729F092E0E837F90734
:10269000C9F702C081E0089580E008958E34A1F06A
:1026A0004CF48334A9F08B34F1F48091700282955C
:1026B000817008958F3489F08335A9F48091700278
:1026C00082FB882780F908958091700281700895B7
:1026D000809170028695817008958091700283FBCD
:1026E000882780F9089580E008951FC08091E80050
:1026F00080FFFCCF089581E08093D70080EA80932B
:10270000D80082E189BD09B400FEFDCF80E9809345
:10271000D8001092E000109279028CE08093E200E1
:1027200078940895809179020895809179028111B9
:1027300002C08FEF08958FB7F89493E09093E9006B
:102740009091E4009E5C23E03091E80035FD0EC0DE
:102750008FBF80917902882361F38091E40089170B
:1027600041F38FB7F8942093E900EECF909178026F
:102770009093F1001092F100E2E7F2E091919093D2
:10278000F10092E0E837F907C9F79AE39093E8007F
:10279000109271028FBF80E008951F920F920FB6C2
:1027A0000F9211248F939F93EF93FF938091E100F9
:1027B0001092E10083FF0FC01092E90091E0909326
:1027C000EB001092EC0092E29093ED0098E0909371
:1027D000F0001092790282FF33C080917902882341
:1027E00079F180910601882359F180916F028F5F02
:1027F00080936F02837021F583E08093E9008091DC
:10280000E80085FF1DC0809171028F5F8093710287
:1028100090910601891314C0109271028091780280
:102820008093F1001092F100E2E7F2E08191809351
:10283000F10082E0E837F807C9F78AE38093E800FF
:10284000FF91EF919F918F910F900FBE0F901F906E
:1028500018951F920F920FB60F921124EF92FF92CC
:102860000F931F932F933F934F935F936F937F9398
:102870008F939F93AF93BF93EF93FF93CF93DF9388
:102880001F92CDB7DEB71092E9008091E80083FF78
:1028900021C19091F1008091F1003091F1002091DF
:1028A000F100E32EF12CF22A0091F1002091F100C9
:1028B00010E0122B2091F1006091F10032EF309383
:1028C000E800863009F046C037E08DE196E0FC0173
:1028D000459154914E155F0539F4FC0132964591AE
:1028E00054914017510721F00796315081F7F2C0FB
:1028F000FC01349645915491FC013696849130E068
:10290000362B2F3F310519F010F02FEF30E028174C
:1029100008F4822F3EEF9091E800292F2570D9F31B
:1029200092FDDBC0982F813208F090E2FA01292F46
:10293000222331F064916093F10021503196F8CF59
:10294000490F511D891B3093E8008111E4CF90326B
:1029500011F3C3C0853049F48EEF8093E800C6DEE2
:102960008E2D80688093E300B8C0893041F59111C5
:1029700046C0E09279028EEF8093E80041E087E064
:1029800097E04093E9009C012F5F3F4FFC01549179
:102990005093EB00552361F0F90124912093EC0052
:1029A0009C012D5F3F4FFC01329684918093ED0096
:1029B0004F5F453011F0C901E4CF8EE141C088304E
:1029C00039F4903809F041C091DE8091790260C0FD
:1029D000811115C099838ADE9981923851F4009350
:1029E000E9008091EB0085FB882780F91092E900CF
:1029F00001C080E08093F1001092F10067C0282FA1
:102A00002D7F213011F5923001F5EF2809F062C0D9
:102A10000F779FEF900F943008F05CC09EEF90937B
:102A2000E8000093E900833009F454C089E1809301
:102A3000EB0081E090E0002E01C0880F0A94EAF7D5
:102A40008093EA001092EA0048C0012B09F042C0CE
:102A5000913A09F5813089F449DE809178028093BA
:102A6000F1001092F100E2E7F2E081918093F10031
:102A700082E0E837F807C9F729C0823021F436DE52
:102A80008091060105C0833029F530DE8091070171
:102A90008093F1001BC09132E9F4893061F4809198
:102AA000E80082FFFCCF8091F100809370028BEFF1
:102AB0008093E8000BC08A3029F4F092060110924E
:102AC000710204C08B3031F4E09207018EEF8093E5
:102AD000E80003C081E28093EB000F90DF91CF917B
:102AE000FF91EF91BF91AF919F918F917F916F91E6
:102AF0005F914F913F912F911F910F91FF90EF9018
:102B00000F900FBE0F901F9018950E94320BC82F88
:102B10000E94C20B1FDD21E030E0C11102C020E0A5
:102B200030E0282BC1E0232B09F4C0E016DD882318
:102B3000E9F30E94330C0E948604D0E0C82B0E9467
:102B4000C80BCD2B11F00E94CE0B0E949004855033
:102B500080937E02CEE080910B0190910C019093C6
:102B60007D0280937C022091090130910A0130930B
:102B70000C0120930B0190930A01809309010E949C
:102B8000900490917E02891B8530C8F30E949004C6
:102B900080937E0280910B0190910C010E94430B67
:102BA00010922D0380912D03863058F510922C033E
:102BB00040912C0360912D034E30F8F4E0910B010D
:102BC000F0910C01C69F90011124240F311DE20FDA
:102BD000F31F808180937B02E0910901F0910A014B
:102BE000E20FF31F908190937A0289132CDC80917D
:102BF0002C038F5F80932C03DBCF6F5F60932D03DB
:102C0000D1CF73DD8091080180FF2DC08EE446DDB9
:102C1000882319F08EE4D9DB02C08EE4DBDB83E489
:102C20003DDD882319F083E4D0DB02C083E4D2DBEE
:102C300083E534DD882319F083E5C7DB02C083E533
:102C4000C9DB8FE42BDD882319F08FE4BEDB02C0E3
:102C50008FE4C0DB8BE422DD882319F08BE4B5DB45
:102C600002C08BE4B7DB0E942E0475CFEE0FFF1F6E
:102C70000590F491E02D099433D088F09F5790F09F
:102C8000B92F9927B751A0F0D1F0660F771F881F91
:102C9000991F1AF0BA95C9F712C0B13081F03AD035
:102CA000B1E0089537C0672F782F8827B85F39F0D3
:102CB000B93FCCF3869577956795B395D9F73EF4F0
:102CC00090958095709561957F4F8F4F9F4F089598
:102CD00057FD9058440F551F59F05F3F71F04795CD
:102CE000880F97FB991F61F09F3F79F087950895B2
:102CF000121613061406551FF2CF4695F1DF08C0D1
:102D0000161617061806991FF1CF869571056105ED
:102D100008940895E894BB2766277727CB0197F995
:102D200008950BD078C069D028F06ED018F09523A4
:102D300009F05AC05FC01124EECFCADFA0F3959FFF
:102D4000D1F3950F50E0551F629FF001729FBB2792
:102D5000F00DB11D639FAA27F00DB11DAA1F649F3E
:102D60006627B00DA11D661F829F2227B00DA11DF1
:102D7000621F739FB00DA11D621F839FA00D611D77
:102D8000221F749F3327A00D611D231F849F600D98
:102D9000211D822F762F6A2F11249F5750408AF0D1
:102DA000E1F088234AF0EE0FFF1FBB1F661F771F5D
:102DB000881F91505040A9F79E3F510570F014C0F4
:102DC000AACF5F3FECF3983EDCF386957795679545
:102DD000B795F795E7959F5FC1F7FE2B880F911D7B
:102DE0009695879597F9089597F99F6780E870E021
:102DF00060E008959FEF80EC089500240A94161671
:102E0000170618060906089500240A9412161306D8
:102E1000140605060895092E0394000C11F4882366
:102E200052F0BB0F40F4BF2B11F460FF04C06F5F82
:102E30007F4F8F4F9F4F0895A0E0B0E0E1E2F7E1B0
:102E4000F2C1EC01CB01209711F4C2D0B4C0FE0155
:102E5000E60FF71F9E0122503109E217F30708F42D
:102E6000A8C0D9010D911C91119706171707B0F052
:102E70000530110508F49BC0A801445051094617BC
:102E8000570708F494C002501109061B170B019351
:102E900011936D937C93CF0133D189C05B01A01A4C
:102EA000B10A4E01800E911EA0913003B091310302
:102EB000612C712C60E070E0109709F449C0A815EE
:102EC000B905C9F5ED90FC901197670142E0C40E79
:102ED000D11CCA14DB0478F147018A189B086401ED
:102EE00042E0C40ED11C1296BC9012971396AC917E
:102EF000B5E0CB16D10440F0B282A38391828082E8
:102F0000D9018D939C9309C00E5F1F4F0E0D1F1D9D
:102F1000F90111830083EB2DFA2F6115710531F052
:102F2000DB011396FC93EE93129741C0F0933103AB
:102F3000E09330033CC06D917C9111976616770643
:102F400008F43B01BD0112960D90BC91A02DB4CFA9
:102F500060912E0370912F0368157905E9F46816C6
:102F60007906D0F4409100015091010141155105BD
:102F700041F44DB75EB76091040170910501461BA5
:102F8000570BE417F507A8F4F0932F03E0932E03F3
:102F9000F901918380830BC01BD07C01009749F01D
:102FA000A801BE010CD0CE01ABD0C70104C0CE0138
:102FB00002C080E090E0CDB7DEB7EEE050C1FB018B
:102FC000DC0102C001900D9241505040D8F70895A5
:102FD000CF93DF938230910510F482E090E0E0918E
:102FE0003003F091310320E030E0A0E0B0E0309712
:102FF00039F14081518148175907B8F048175907EE
:1030000071F482819381109729F013969C938E938B
:1030100012972CC0909331038093300327C0211561
:10302000310531F04217530718F0A901DB0101C047
:10303000EF019A01BD01DF010280F381E02DD7CFBE
:1030400021153105F9F0281B390B2430310580F4A6
:103050008A819B816115710521F0FB019383828335
:1030600004C09093310380933003FE01329644C034
:10307000FE01E20FF31F81939193225031093983AE
:1030800028833AC020912E0330912F03232B41F443
:10309000209102013091030130932F0320932E03DE
:1030A00020910001309101012115310541F42DB726
:1030B0003EB74091040150910501241B350BE0916E
:1030C0002E03F0912F03E217F307A0F42E1B3F0B02
:1030D0002817390778F0AC014E5F5F4F241735078A
:1030E00048F04E0F5F1F50932F0340932E038193A0
:1030F000919302C0E0E0F0E0CF01DF91CF9108951D
:10310000CF93DF93009709F487C0FC0132971382B5
:103110001282C0913003D0913103209781F4208135
:103120003181280F391F80912E0390912F03821730
:10313000930779F5F0932F03E0932E036DC0DE0122
:1031400020E030E0AE17BF0750F412964D915C912D
:1031500013979D014115510509F1DA01F3CFB383AE
:10316000A28340815181840F951F8A179B0771F4B8
:103170008D919C911197840F951F02969183808366
:1031800012968D919C91139793838283211531051B
:1031900029F4F0933103E09330033EC0D901139634
:1031A000FC93EE9312974D915D91A40FB51FEA1712
:1031B000FB0779F480819181840F951F0296D901D4
:1031C00011969C938E938281938113969C938E93F8
:1031D0001297E0E0F0E08A819B81009719F0FE01F0
:1031E000EC01F9CFCE01029628813981820F931F1D
:1031F00020912E0330912F032817390769F4309757
:1032000029F4109231031092300302C0138212820B
:10321000D0932F03C0932E03DF91CF9108952F9267
:103220003F924F925F926F927F928F929F92AF9256
:10323000BF92CF92DF92EF92FF920F931F93CF93A3
:10324000DF93CDB7DEB7CA1BDB0B0FB6F894DEBF3A
:103250000FBECDBF09942A88398848885F846E8460
:103260007D848C849B84AA84B984C884DF80EE80AA
:10327000FD800C811B81AA81B981CE0FD11D0FB6B3
:10328000F894DEBF0FBECDBFED010895F894FFCFD7
:103290000000320320007D01017F02D3022A2B2887
:1032A00000002800000000000000000000000000F6
:1032B00029000000002C1E3420212224342627253A
:1032C0002E362D37380000000000000000000033CB
:1032D00033362E37380000000000000000000000E8
:1032E00000001F00000000000000000000000000BF
:1032F0002F3130232D3500000000000000000000B9
:1033000000000000000000000000000000000000BD
:103310002F3130354C00000000000000000000009C
:10332000000000000000000000000000000001019B
:103330000101010100010101010000000000000085
:103340000000000000000001000100010100000079
:10335000000000000000000000000100000000006C
:10336000000000000000000000000001010000005B
:10337000000000000000000000000000000000004D
:0E33800000000000000000000101010100003B
:00000001FF
