:1000000086C30000A1C300009FC300009DC3000081
:100010009BC3000099C3000097C3000095C3000074
:1000200093C3000091C300000C9475130C94D1137A
:100030008BC3000089C3000087C3000085C3000094
:1000400083C3000081C300007FC300007DC30000A4
:100050007BC300006CC4000077C3000075C30000C0
:1000600073C3000071C300006FC300006DC30000C4
:100070006BC3000069C3000067C3000065C30000D4
:1000800063C3000061C300005FC300005DC30000E4
:100090005BC3000059C3000057C3000055C30000F4
:1000A00053C3000051C300004FC300006E1274120E
:1000B0007D12831289128F1295129B12CD12CF12CC
:1000C000D212D612DA12DD12E112E5123A303030D5
:1000D000303030303146460A000A003A00F80EF857
:1000E0000EB00F60109E0F4E109C0F4C10AE0F5EA6
:1000F00010A00F5010A40F5410A80F5810AA0F5A98
:1001000010AC0F5C10740F2410720F2210B20F632A
:1001100010F80EF80EFD10050F0411060F980F4889
:10012000109A0F4A1085108910F80EF80EF80EF884
:100130000EF80EF80EF80EF80E85108910940F4484
:1001400010960F46101E11080F7C0F2C1096119957
:1001500011400FF00F3C0FEC0F120FC20F380FE8D9
:100160000F100FC00F1111070F2B11090F280FD8F7
:100170000F260FD60F7E0F2E10840F34108A0F3AE1
:10018000109C119F11B40F66100E0FBE0F320FE2BC
:100190000F140FC40F180FC80F1A0FCA0FF80EF85C
:1001A0000EF80EF80E1C0FCC0F200FD00F220FD21E
:1001B0000F240FD40F880F3810860F3610760F26B5
:1001C000102E0FDE0F3A0FEA0F160FC60F300FE09A
:1001D0000F340FE40F8B10F80E8B10F80E3E0FEE5D
:1001E0000F360FE60F1E0FCE0F2A0FDA0F2C0FDC83
:1001F0000F7A0F2A10820F3210440FF40F460FF6B9
:100200000F480FF80F4A0FFA0F4C0FFC0FA20F52B6
:1002100010620F12104E0FFE0F500F0010520F02FF
:1002200010540F0410420FF20F800F3010F80EF828
:100230000EF70EF70EA60F5610F70EF70EF70EF785
:100240000EF70EF70EF70EF70EF70EF70EF70EF786
:100250000EF70EF70EF70EF70EF70EF70EF70EF776
:100260000EF80EF80EF70EF70EF70EF70EF70EF764
:100270000EF70EF70EF70EF70EF70EF70EF70EF756
:100280000EF70EF70EF70EF70EF70EF70EF70EF746
:100290000EF70EF70EF70EF70EF70EF70EF70EF736
:1002A0000E4C110C0F38110A0F3F110B0FA40F54F5
:1002B00010AA0F5A10F70EF70EF70EF70EA80F58E8
:1002C00010A00F501059110D0FF70EF70EF70EF783
:1002D0000EBC0F7210F70EF70EAF10FF0EBC100021
:1002E0000F9510FD0EA210FE0E780F2810F80EF8D4
:1002F0000EF80EF80E560F0610C910010FD6100298
:100300000FE310030FF010040FBA0F6F10F70EF782
:100310000E440FF40F460FF60F480FF80F4A0FFA6E
:100320000F4C0FFC0FF70EF70EF70EF70E4E0FFEE9
:100330000F500F0010520F0210540F0410420FF212
:100340000FB80F6C10F70EF70E5A0F0A105C0F0C57
:10035000105E0F0E10600F1010620F12106E0F1E45
:1003600010700F2010640F1410660F1610680F180D
:10037000106A0F1A106C0F1C10B60F6910F80EF8E7
:100380000EF70EF70EF70EF70EF70EF70EF70EF745
:100390000EF70EF70EF70EF70EF70EF70EF70EF735
:1003A0000EF70EF70E420FF20FF70EF70EF70EF7DD
:1003B0000EF80EF80EF70EF70EA60F5610F70EF702
:1003C0000EF70EF70EF70EF70EF70EF70EF70EF705
:1003D0000EF70EF70EF70EF70EF80EF80EF80EF8F1
:1003E0000E840F3410720F2210F70EF70EF70EF76F
:1003F0000EF70EF70EF70EF70EF70EF70EF70EF7D5
:100400000EF70EF70EF70EF70EF70EF70EF80EF8C2
:100410000E440FF40F460FF60F480FF80F720F221D
:1004200010F70EF70EF80EF80EF70EF70EF70EF7A0
:100430000EF70EF70EF70EF70EF70EF70EF80EF892
:100440000EF80EF80EF80EF80E4A0FFA0F4C0FFCCD
:100450000F4E0FFE0F8C0F3C10F70EF70EF70EF736
:100460000EF70EF70EF70EF70EF70EF70EF70EF764
:100470000EF70EF70E9110F80E9110F80EF80EF818
:100480000E500F0010520F0210540F04108E0F3E2A
:1004900010F70EF70E7510F90EF70EF70EF70EF7B0
:1004A0000EF70EF70EF70EF70EF70EF70EF70EF724
:1004B0000EF70EF70EF80EF80EF80EF80EF80EF80E
:1004C0000E900F4010920F4210F70EF70EF80EF834
:1004D0000EF80EF80EF80EF80EF80EF80EF80EF8EC
:1004E0000EF80EF80EF80EF80EF80EF80EF80EF8DC
:1004F0000EF80EF80EF80EF80EF80EF80EF80EF8CC
:100500000EF80EF80EF80EF80EF80EF80EF80EF8BB
:100510000EF80EF80EF80EF80EF80EF80EF80EF8AB
:100520000EF80EF80EF80EF80EF80EF80EF80EF89B
:100530000EF80EF80EF80EF80EF80EF80EF80EF88B
:100540000EF80EF80EF80EF80EF80EF80EF80EF87B
:100550000EF80EF80EF80EF80EF80EF80EF80EF86B
:100560000EF80EF80EF80EF80EF80EF80EF80EF85B
:100570000EF80EF80EF80EF80EF80EF80EF80EF84B
:100580000EF80EF80EF80EF80EF80EF80EF80EF83B
:100590000EF80EF80EF80EF80EF80EF80EF80EF82B
:1005A0000EF80EF80EF80EF80E8010FC0EF80EF88D
:1005B0000EF80EF80EF80EF80EF80EF80EF80EF80B
:1005C0000EF80EF80EF80EF80EF80EF80EF80EF8FB
:1005D0000EF80EF80EF80EF80EF80EF80EF80EF8EB
:1005E0000E7B10FB0E7510F90EF80EF80EF80EF8D3
:1005F0000EF80EF80EF80EF80EF80EF80EF80EF8CB
:100600000EF80EF80EF80EF80EF80EF80EF80EF8BA
:100610000EF80EF80EF80EF80E7610FA0E00010025
:1006200000F506120002000094062200220000B627
:10063000063F00210000A606090003000090060402
:1006400001030904860608020309044E0636360330
:100650004500720067006F0044006F0078002000C2
:100660004500720067006F006E006F006D0069004A
:10067000630020004B006500790062006F0061009C
:1006800072006400000008034400490059000000A3
:100690000403090409022200010100C03209040018
:1006A000000103010100092111010001223F00079F
:1006B00005830308000105010906A10175019508DC
:1006C000050719E029E71500250181029501750844
:1006D0008103950575010508190129059102950108
:1006E000750391039506750815002568050719001F
:1006F00029688100C01201000200000020501D285E
:1007000060000101020001000001C1060000112487
:100710001FBECFEFDAE0DEBFCDBF11E0A0E0B1E059
:10072000E8EEF1E302C005900D92AE3FB107D9F7B4
:1007300023E0AEEFB1E001C01D92A233B207E1F7B2
:100740000E942B150C94F2185BCC1F93CF93DF9370
:10075000EC0119818881811B8530A8F0812F90E000
:100760008E3F910514F41E5F01C01FEF84E0189FB7
:10077000B00111248A819B810E94C216009729F042
:1007800018839B838A8380E001C081E0DF91CF9151
:100790001F9108950F931F93FC014181262F30E094
:1007A000E42FF0E031972E173F07ACF4DC011296EE
:1007B000ED91FC911397220F331F220F331FE20F8D
:1007C000F31F0481158126813781008311832283E1
:1007D00033836F5FE1CF4150DC0111964C931F9141
:1007E0000F91B3CFEF92FF920F931F93CF93DF93AD
:1007F000EC014115510529F199819F3F21F18A01B1
:100800007B019F5F9983CE01A0DF9981882319F036
:100810009150998318C02A813B81F90144E0949F4B
:10082000E00DF11D11243497F182E082998144E0BA
:10083000949F200D311D1124F901349713830283F5
:1008400003C080E001C081E0DF91CF911F910F9143
:10085000FF90EF900895AB01BC0186E092E0C2CF1B
:10086000CF93809104029091050201969093050226
:1008700080930402C0E080910702C817D8F4E09189
:100880000802F091090284E0C89FE00DF11D1124D7
:1008900080819181009749F40280F381E02D0995D0
:1008A0006C2F86E092E076DF03C00197918380830E
:1008B000CF5FE1CFCF910895CF938091FE019091CA
:1008C000FF0101969093FF018093FE01C0E08091AB
:1008D0000102C817D8F4E0910202F091030284E00B
:1008E000C89FE00DF11D112480819181009749F48A
:1008F0000280F381E02D09956C2F80E092E04ADFC1
:1009000003C0019791838083CF5FE1CFCF9108959A
:100910008AEF87BD82E084BD93E095BD80936E0031
:1009200080E0089580910A0290910B0208951F9231
:100930000F920FB60F9211248F939F9380910A020A
:1009400090910B02019690930B0280930A029F9163
:100950008F910F900FBE0F901F9018950F931F93BC
:10096000CF93DF9320910D02822F8295807F859512
:10097000859585958595322F3595359535953595A0
:10098000982F930F37FD03C095300CF46BC02F7078
:10099000D0910C02492F092E000C550B21110FC0CC
:1009A0002D2F30E0241B350BA9014E5F5F4F4F3FC9
:1009B000510509F070F5C2E0CD0FC91B31C06D2F94
:1009C00070E0641B750B082F082E000C110B282FEC
:1009D00030E026173707ACF4E0910E02F0910F02D9
:1009E000D901A01BB10BAA0FBB1FAE0FBF1F220F57
:1009F000331FE20FF31F208131812D933C938F5FD2
:100A0000E6CF892F8295807F80930D02953040F646
:100A100029C02F3F310519F010F081E024C0CFEF3D
:100A20006C2F70E0660F771F80910E0290910F027D
:100A30000E94C216AC01892B81F390910D02292FDF
:100A400025952595259525952D1B2C0F2295207FE5
:100A50009F70922B90930D02C0930C0250930F0243
:100A600040930E0280E0DF91CF911F910F91089586
:100A7000EF92FF920F931F93CF93DF932091110278
:100A8000822F8295807F8595859585958595322FD6
:100A90003595359535953595982F930F37FD03C0CE
:100AA00095300CF474C02F70D0911002692F092E6C
:100AB000000C770B21110FC02D2F30E0261B370BB8
:100AC000A9014E5F5F4F4F3F510509F0B8F5C2E0F5
:100AD000CD0FC91B3AC0AD2FB0E0A61BB70B082F36
:100AE000082E000C110B282F30E02A173B07ECF4DE
:100AF0004091120250911302201B310BF901EE0FAD
:100B0000FF1F2E0F3F1F7A01E20EF31E23E0829F8C
:100B1000400D511D1124FA01208131814281F701DC
:100B20002083318342838F5FDECF892F8295807F40
:100B300080931102953008F0BFCF29C02F3F3105B7
:100B400019F010F081E024C0CFEFF3E0CF9FB001A7
:100B5000112480911202909113020E94C216AC01DE
:100B6000892B81F390911102292F259525952595A3
:100B700025952D1B2C0F2295207F9F70922B9093F3
:100B80001102C0931002509313024093120280E0AE
:100B9000DF91CF911F910F91FF90EF900895E1E1C8
:100BA000F2E0808191E0980F9F70807F892B808395
:100BB0005FCFF999FECF92BD81BDF89A80B50895B7
:100BC0000F931F93CF93DF931F92CDB7DEB78C01A6
:100BD0006983EFDF6981681791F06F3F19F4FD9821
:100BE000FC9A06C08F3F11F4FD9A01C0FD98FC9855
:100BF00012BD01BD60BDF894FA9AF99A78940F90ED
:100C0000DF91CF911F910F9108950F931F93CF9371
:100C1000DF9380911102482F4295407F459545957D
:100C2000459545952091100230E0241B310947FD80
:100C300033958595859585958595082E000C990B9E
:100C40002817390751F4809127038E7F809327035B
:100C5000DF91CF911F910F910895E0911202F091D1
:100C6000130223E04202E00DF11D11248081982F30
:100C70009F7381F482958695869583709181292F43
:100C8000220F220F6281822B9295969596959370F2
:100C900097DFE8C0913009F08EC0828181110BC0CE
:100CA0007EDF80910D0291E0980F9F70807F892BED
:100CB00080930D0253DEC0910D02C295C07FC59591
:100CC000C595C595C595CC0FDD0B80910E02909111
:100CD0000F02C80FD91F888199816BDF9091110293
:100CE0009295907F95959595959595950091120281
:100CF00010911302E3E09E02000D111D1124F80172
:100D0000208122952695269523709181392F330FC6
:100D1000330F682F832F822B92959695969593701B
:100D20004FDFF8012081422F42954695469543704A
:100D30003181532F550F550F852F842B932F92956B
:100D4000969596959370488159812F7384179507CE
:100D5000A8F401969370382F3295330F330F307CFF
:100D6000232B20839295990F990F907C86958695D9
:100D7000892B818388819981019616C081509C4F6F
:100D80009370382F3295330F330F307C232BF801BB
:100D900020839295990F990F907C86958695892B43
:100DA000818388819981019799838883F801828161
:100DB0008150828358C0923009F054C0C0910D0216
:100DC000C295C07FC595C595C595C5958C2F880FD3
:100DD000990BE0910E02F0910F02E80FF91F80814C
:100DE00081110BC0DCDECF5F8C2F8F70C0910D02A4
:100DF000C07FC82BC0930D02B1DD80911102829596
:100E0000807F8595859585958595E0911202F09175
:100E1000130223E08202E00DF11D112480818295EE
:100E20008695869583709181292F220F220F6281EA
:100E3000822B9295969596959370C2DEE0910D0265
:100E4000E295E07FE595E595E595E595EE0FFF0BDD
:100E500080910E0290910F02E80FF91F808181505E
:100E6000808301C09CDE65E076E081E090E0DF9168
:100E7000CF911F910F91EFCC0F931F93CF93DF93DF
:100E800000D0CDB7DEB7082F20911102322F307F6E
:100E900030512F70232B2093110269839A83E8DD50
:100EA000182F2091110269819A81882349F0822F9D
:100EB000807F805F2F70282B2093110211E02FC0BC
:100EC0003091100231502595259525952595321B99
:100ED000E0911202F091130283E0389FE00DF11DC2
:100EE0001124802F8295880F880F807C80839295B3
:100EF000990F990F907C802F86958695982B9183DA
:100F000062838091270380FD0AC065E076E080E07F
:100F100090E0A1DC80912703816080932703812FDB
:100F20000F900F90DF91CF911F910F910895E9EBF2
:100F3000F0E080818C7F80838CE08093B8000895FE
:100F400084EA8093BC008091BC0087FFFCCF809135
:100F5000B900887F883049F08091B900887F80315E
:100F600021F08091B900887F089580E0089584E998
:100F70008093BC008091BC0084FDFCCF08958093D9
:100F8000BB0084E88093BC008091BC0087FFFCCF4D
:100F90008091B900887F883171F08091B900887F95
:100FA000883249F08091B900887F803421F08091A7
:100FB000B900887F089580E0089524EC2093BC0058
:100FC0002091BC0027FFFCCF2091BB00FC012083B7
:100FD0008091B900887F803521F08091B900887FA9
:100FE000089580E0089560E080E090E045DF882388
:100FF00011F081E0089560E081E090E03DDF811133
:10100000F8CF63E082E090E037DF8111F2CF6FEF3D
:1010100083E090E031DF8111ECCF61E084E090E08B
:101020002BDF8111E6CF6FEF85E090E025DF8111A6
:10103000E0CF25E030E0309329032093280310927D
:101040002B0310922A030895CF93DF9380E090E062
:10105000B0DD811114C081E090E0ABDD81110FC0E3
:1010600082E090E0A6DD833051F483E090E0A1DDE2
:101070008F3F29F484E090E09CDD813019F0DF910E
:10108000CF91B1CF85E090E094DDC5E0D0E08F3F17
:1010900041F0CE0101968DDDC80FD11DCE0189DD55
:1010A000F6CFD0932903C093280310922B031092FC
:1010B0002A0380E0DF91CF910895682F81E00C949E
:1010C0005D12682F80E00C945D12CF93DF9381EE68
:1010D0000E94BE12D82F85EE0E94BE12C82F61EE6C
:1010E00080E00E945D1265EE80E00E945D120E9429
:1010F0001D1369E381E00E945D120E941D1369E3E4
:1011000080E00E945D120E941D1361EE8D2F0E94EF
:101110005D1265EE8C2F0E945D12DF91CF910C94D1
:101120001D13DF92EF92FF920F931F93CF93DF93E4
:1011300000D0CDB7DEB7982F92959F7099838F70AE
:101140008A838E010F5F1F4F87E2D82E92E0E92E2F
:10115000E00EF8018081811102C0D08207C08A3080
:1011600010F4835E01C08650F8018083F801F1908D
:101170008F016F2D81E00E945D120E941D136F2D63
:1011800080E00E945D120E941D13E012E2CF0F90DA
:101190000F90DF91CF911F910F91FF90EF90DF9013
:1011A0000C941D13EF92FF920F931F93CF93DF9335
:1011B0007C01F7016491662309F4A4C067FD03C0B4
:1011C000062F10E03DC0862F829586958770863069
:1011D00071F46F71F0E46F9F800111248FEFE81AB2
:1011E000F80AF7016491862F8F73082B29C0862F88
:1011F00082958F708E30D1F4062F10E0102F0027CB
:101200001295107FF70131968491F2E0EF0EF11CF8
:10121000F7016491962F9F73092BE82FEF7380E4F9
:10122000E89FF00111240E2B1F2B0AC066956695CE
:1012300066956E3109F05FC093E0E90EF11C5BC06A
:10124000862F90E080179107D1F5603309F457C0DD
:101250008FEC860F893010F4CDEE0DC08FEB860F2A
:101260008A3120F4C3ECC60FD1E017C08FE9860F96
:101270008A3118F4C3EAC60F43C068506837F8F4DF
:1012800070E0FB01EB57FE4FD081DB01A35FBE4F47
:10129000CC91CC23A1F0DD2321F061EE81E00E940E
:1012A0005D126C2F81E00E945D120E941D13DD23F0
:1012B00021F061EE80E00E945D126C2F17C062EE9B
:1012C00081E00E945D120E941D136EE281E00E9487
:1012D0005D120E941D136EE280E00E945D120E946A
:1012E0001D13812F1EDF802F1CDF62EE80E00E9425
:1012F0005D120E941D13EFEFEE1AFE0A5ACFC7E2ED
:10130000D0E0CFCFDF91CF911F910F91FF90EF9061
:101310000895FC0180810895FC01849108958F92C5
:101320009F92AF92BF92CF92DF92EF92FF920F9374
:101330001F93CF93DF935C01EB016A0110E17A0107
:101340002FEFE21AF20ACE15DF0569F0C6018C1BF9
:101350009D0BAC014F5F5F4F212F30E042175307C9
:1013600010F411E0180F0D2F0C0F010F8BED90E012
:1013700019DF812FD6DE8D2FD4DE8C2FD2DE80E0D8
:10138000D0DECE01282F2C1B211750F44C01EFEF9B
:101390008E1A9E0AF5010995080FC3DEC401F2CF2B
:1013A000C10FD11D802F8195BCDE89ED90E0FADE62
:1013B000CE15DF0509F0C7CF8CEC90E0DF91CF911F
:1013C0001F910F91FF90EF90DF90CF90BF90AF9063
:1013D0009F908F90E7CEF89481E08093E00080E2C8
:1013E0008093D800E9ECF0E010828FE19EE4019751
:1013F000F1F700C000001DBA109268001CBC10BEBE
:101400001FBA10927A0010926E0010926F00109224
:101410007100109272001082ECEBF0E0108214B8B0
:1014200017B81AB81DB810BA108215B818B81BB87A
:101430001EB811BA0C94003F0895AB0161157B40B2
:1014400010F04FEF5AE04817590720F0BC0189E827
:1014500099E065CF0895AB016115704810F04FEF2A
:101460005FE74817590720F0BC018CE899E057CF97
:101470000895AB016115744010F04FEF53E0481729
:10148000590720F0BC0189ED95E049CF0895CF932D
:10149000C0911502809114028C1B8530D0F08C2FE6
:1014A00090E08E3F910514F4CE5F01C0CFEF6C2F1A
:1014B00070E0660F771F80911602909117020E94CC
:1014C000C216009741F0C0931402909317028093C4
:1014D000160280E001C081E0CF91089520911502AD
:1014E00030E090E08217930774F421503109281BF3
:1014F000390B220F331FE0911602F0911702E20F11
:10150000F31F8181089580E0089590911502409124
:1015100016025091170220E0291769F04E5F5F4FC5
:10152000FA0132973081381304C08FEF890F821B84
:1015300008952F5FF1CF8FEF0895EF92FF920F93F1
:101540001F93CF93DF93F82EE62ED42F862FDDDF67
:10155000E09115028F3F71F0F0E03197E81BF1093F
:10156000EE0FFF1F2091160230911702E20FF31FBA
:10157000D18334C08E2FEF3F89F181E08E0F8093AD
:101580001502CE2FCF1990E00C2F10E00817190785
:101590003CF0809115028150809315028FEF1EC0A0
:1015A00076DF8111F6CF909115029150E0911602ED
:1015B000F0911702C91758F4E90FF11DE90FF11D59
:1015C000DF0112972D913C9131832083EECF000FE4
:1015D000111FE00FF11FE082D1838F2DDF91CF919A
:1015E0001F910F91FF90EF900895CF938EDFC82F3A
:1015F0008F3F01F1809115025FEF580F452F4C1B73
:1016000090E00197242F30E02817390774F4E09117
:101610001602F0911702220F331FE20FF31F2281EF
:101620003381318320834F5FEDCF509315022FDF3D
:101630008C2F01C08FEFCF910895809115020895EE
:10164000823031F0833031F0813029F4259A0895C9
:10165000269A0895279A0895823031F0833031F028
:10166000813029F42598089526980895279808959B
:10167000282FCB01BA01223091F02330F1F0213034
:1016800049F520E030E04FE753E40E9437160E940E
:10169000E21570E07093890060938800089520E05F
:1016A00030E04FE753E40E9437160E94E21570E0E5
:1016B00070938B0060938A00089520E030E04FE73C
:1016C00053E40E9437160E94E21570E070938D007B
:1016D00060938C00089581E0B3DF82E0B1DF83E0A6
:1016E000AFCF81E0B9DF82E0B7DF83E0B5CFCF9243
:1016F000DF92EF92FF926B017C01AB01BC0181E0B4
:10170000B7DFB701A60182E0B3DFB701A60183E02E
:10171000FF90EF90DF90CF90ABCF6DEC7CEC8CE442
:101720009DE3E5DFD8CFDDDF60E070E080E09FE3A0
:10173000DECF1F93CF93DF938FE39CE90197F1F7FF
:1017400000C0000013B1D3B1D074C3B1C078C9DFF9
:101750009FE727E288E0915020408040E1F700C0F9
:101760000000B9DF9FE727E288E0915020408040E9
:10177000E1F700C00000B5DF9FE727E288E0915065
:1017800020408040E1F700C00000A5DF9FE727E28E
:1017900088E0915020408040E1F700C00000A1DFC8
:1017A0009FE727E288E0915020408040E1F700C0A9
:1017B000000091DF9FE727E288E0915020408040C1
:1017C000E1F700C000008DDF9FE727E288E091503D
:1017D00020408040E1F700C0000015FD259ADD2380
:1017E00011F082E02DDFCC2329F083E0DF91CF914F
:1017F0001F9126CFDF91CF911F9108958FE790E041
:1018000090938900809388002FE732E440E12150D3
:1018100030404040E1F700C0000090938B0080937F
:101820008A002FE732E440E1215030404040E1F7A8
:1018300000C0000090938D0080938C008FE792E4AD
:1018400020E1815090402040E1F700C00000089561
:101850001FD0811107C02AD2811106C0F5DB81118A
:1018600005C0089581E0089582E0089583E0089519
:10187000CF93DF93EC01D3D0811106C0CE0141D2CA
:10188000882319F082E001C081E0DF91CF910895B3
:10189000E1E6F0E080E88083108256985E98249814
:1018A0002C981FDF89EA8093800089E08093810073
:1018B0003EDB3F9885E08A95F1F70000579885E078
:1018C0008A95F1F70000549885E08A95F1F70000B9
:1018D000559885E08A95F1F700006E9885E08A9525
:1018E000F1F70000479A85E08A95F1F700005F9ACA
:1018F00085E08A95F1F700005C9A85E08A95F1F71A
:1019000000005D9A85E08A95F1F70000769A85E0FF
:101910008A95F1F70000879885E08A95F1F7000035
:10192000869885E08A95F1F70000859885E08A958C
:10193000F1F70000849885E08A95F1F7000081981E
:1019400085E08A95F1F70000809885E08A95F1F7A7
:101950000000209885E08A95F1F70000219885E045
:101960008A95F1F70000229885E08A95F1F700004A
:10197000239885E08A95F1F70000529885E08A95D2
:10198000F1F70000539885E08A95F1F700003E9842
:1019900085E08A95F1F700008F9A85E08A95F1F746
:1019A00000008E9A85E08A95F1F700008D9A85E017
:1019B0008A95F1F700008C9A85E08A95F1F700008E
:1019C000899A85E08A95F1F70000889A85E08A95E2
:1019D000F1F70000289885E08A95F1F70000299832
:1019E00085E08A95F1F700002A9885E08A95F1F75D
:1019F00000002B9885E08A95F1F700005A9885E061
:101A00008A95F1F700005B9885E08A95F1F7000070
:101A1000469885E08A95F1F7000080E00895CF931D
:101A2000DF93FC01209A85E08A95F1F700008FB1E1
:101A30008095881F8827881F87839FB181E096FB48
:101A4000992790F99827958B9FB195FB992790F945
:101A5000982793A39FB192959170982791AB9FB1CE
:101A600096959170982797AF9FB1DF01AA5BBF4F02
:101A70009170982717969C931797209895E09A95C0
:101A8000F1F70000219A95E09A95F1F700009FB1D7
:101A90009095991F9927991F90879FB196FB992739
:101AA00090F99827968B9FB195FB992790F99827E5
:101AB00094A39FB192959170982792AB9FB1EF013B
:101AC000C05CDF4F96959170982798839FB1917075
:101AD000982718969C931897219895E09A95F1F776
:101AE0000000229A95E09A95F1F700009FB1909539
:101AF000991F9927991F91879FB196FB992790F974
:101B00009827978B9FB195FB992790F9982795A3D4
:101B10009FB192959170982793AB9FB1219696951E
:101B20009170982798839FB19170982719969C93EC
:101B30001997229895E09A95F1F70000239A95E07D
:101B40009A95F1F700009FB19095991F9927991FD9
:101B500092879FB196FB992790F99827908F9FB114
:101B600095FB992790F9982796A39FB1929591702C
:101B7000982794AB9FB1219696959170982798835A
:101B80009FB1917098271A969C931A97239895E085
:101B90009A95F1F70000529A95E09A95F1F70000B6
:101BA0009FB19095991F9927991F93879FB196FB95
:101BB000992790F99827918F9FB195FB992790F9D4
:101BC000982797A39FB192959170982795AB9FB155
:101BD000219696959170982798839FB19170982738
:101BE0001B969C931B97529895E09A95F1F70000ED
:101BF000539A95E09A95F1F700009FB19095991F3F
:101C00009927991F94879FB196FB992790F9982758
:101C1000928F9FB195FB992790F9982790A79FB134
:101C200092959170982796AB9FB121969695917059
:101C3000982798839FB1917098271C969C931C9726
:101C4000539895E09A95F1F700003E9A95E09A95A1
:101C5000F1F700009FB19095991F9927991F9587DB
:101C60009FB196FB992790F99827938F9FB195FB89
:101C7000992790F9982791A79FB1929591709827ED
:101C800097AB9FB1EB5BFF4F969591709827908330
:101C90009FB1917089271D968C933E9885E08A9517
:101CA000F1F7000080E0DF91CF910895CF9348D9FC
:101CB00080E465D9C82F811120C080E060D980E818
:101CC0005ED98FEF5CD953D93BD980E458D9C82F5E
:101CD000811113C08CE053D980E851D98FEF4FD9CF
:101CE00046D92ED980E44BD9C82F811106C084E192
:101CF00046D98FEF44D98FEF42D939D98C2FCF9164
:101D00000895BF92CF92DF92EF92FF920F931F93AD
:101D1000CF93DF931F92CDB7DEB78C01C7DFB82E0C
:101D2000882379F086E09801295F3F4FF8011192EE
:101D3000E217F307E1F78150025F1F4F8111F3CFE4
:101D40004AC0C12CD12CEE24E394F12CF9D880E4C4
:101D500016D982E114D9C7010C2C01C0880F0A944E
:101D6000EAF780950CD903D9EBD880E408D983E150
:101D700006D9E6D881E403D9CE0101961ED9F7D859
:101D8000898190E0F801EC0DFD1D45E050E09C01DB
:101D9000042E02C0359527950A94E2F72170332767
:101DA00061E0262721702083415051093E964F3F24
:101DB0002FEF520761F76FEFC61AD60A87E0C816F1
:101DC000D10409F0C3CFBCD880E4D9D882E1D7D8F8
:101DD0008FEFD5D8CCD88B2D0F90DF91CF911F915D
:101DE0000F91FF90EF90DF90CF90BF9008950895EE
:101DF00008950895089508950895089508950895FB
:101E000008950895089508950895089508950895EA
:101E100008950895089508950895089584E04DC99A
:101E200085E04BC986E049C987E047C988E045C9D4
:101E300089E043C98AE041C98BE03FC98CE03DC9D4
:101E40008DE03BC98EE039C98FE037C980E135C9E3
:101E500081E133C982E131C983E12FC984E12DC910
:101E600085E12BC986E129C987E127C988E125C910
:101E700089E123C98AE121C98BE11FC98CE11DC910
:101E80008DE11BC987E219C98EE117C98FE115C918
:101E900080E213C981E211C982E20FC983E20DC950
:101EA00084E20BC985E209C986E207C981EE05D93A
:101EB00087E203C98AE301C98BE3FFC88CE3FDC84D
:101EC0008DE3FBC88EE3F9C88FE3F7C880E4F5C85B
:101ED00081E4F3C882E4F1C883E4EFC884E4EDC888
:101EE00085E4EBC888E2E9C88CE2E7C88BE2E5C884
:101EF00081E3E3C88FE2E1C880E3DFC886E3DDC8A1
:101F00008DE2DBC885E3D9C887E3D7C884E3D5C8A9
:101F100083E3D3C888E3D1C887E5CFC886E5CDC8B9
:101F200085E5CBC884E5C9C882E5C7C881E5C5C8D1
:101F300080E5C3C88FE4C1C88AE2BFC88CE4BDC8CD
:101F40008DE4BBC889E2B9C88AE4B7C889E4B5C8DA
:101F50008BE4B3C88EE4B1C886EEAFC882EEADC8DC
:101F600080EEABC884EEA9C889E3A7C886E6A5C8F9
:101F700080E8A3C881E8A1C88FE79FC884E0A1C812
:101F800085E09FC886E09DC887E09BC888E099C827
:101F900089E097C88AE095C88BE093C88CE091C827
:101FA0008DE08FC88EE08DC88FE08BC880E189C836
:101FB00081E187C882E185C883E183C884E181C863
:101FC00085E17FC886E17DC887E17BC888E179C863
:101FD00089E177C88AE175C88BE173C88CE171C863
:101FE0008DE16FC887E26DC88EE16BC88FE169C86B
:101FF00080E267C881E265C882E263C883E261C8A3
:1020000084E25FC885E25DC886E25BC887E259D892
:1020100081EE57C88AE355C88BE353C88CE351C897
:102020008DE34FC88EE34DC88FE34BC880E449C8A9
:1020300081E447C882E445C883E443C884E441C8D6
:1020400085E43FC888E23DC88CE23BC88BE239C8D2
:1020500081E337C88FE235C880E333C886E331C8EF
:102060008DE22FC885E32DC887E32BC884E329C8F8
:1020700083E327C888E325C887E523C886E521C808
:1020800085E51FC884E51DC882E51BC881E519C820
:1020900080E517C88FE415C88AE213C88CE411C81C
:1020A0008DE40FC889E20DC88AE40BC889E409C829
:1020B0008BE407C88EE405C886EE03C882EE01C82B
:1020C00080EE0C94610884EE0C94610889E30C9412
:1020D000610886E60C94610880E80C94610881E848
:1020E0000C9461088FE70C94610875C96FEF7FEF5E
:1020F00080E090E0A2C96FEF7FEF80E090E0ABC995
:102100006FEF7FEF80E090E0B4C941E061E080E0F4
:1021100014CA81E06ACA42E062E080E00EDA82E03E
:102120008FCA82E062DA82E097CA66EE81E0C5D1AA
:1021300064E281E0C2D181D266EE80E0BED164E289
:1021400080E0BBC166EE81E0B8D167E281E0B5D145
:1021500074D266EE80E0B1D167E280E0AEC166EE97
:1021600081E0ABD165E281E0A8D167D266EE80E084
:10217000A4D165E280E0A1C166EE81E09ED166E275
:1021800081E09BD15AD266EE80E097D166E280E092
:1021900094C161EE81E091D164E281E08ED14DD2B3
:1021A00061EE80E08AD164E280E087C166EE81E082
:1021B00084D16DE281E081D140D266EE80E07DD1B4
:1021C0006DE280E07AC165EE81E077D165E281E081
:1021D00074D133D265EE80E070D165E280E06DC1EC
:1021E00065EE81E06AD166E281E067D126D265EED4
:1021F00080E063D166E280E060C164E681E05DD1A9
:102200001CD264E680E059C165EE81E056D164E6F7
:1022100081E053D112D265EE80E04FD164E680E0D8
:102220004CC166EE81E049D164E681E046D105D239
:1022300066EE80E042D164E680E03FC166EE81E078
:102240003CD160E381E039D1F8D166EE80E035D150
:1022500060E380E032C165EE81E02FD160E381E090
:102260002CD1EBD165EE80E028D160E380E025C180
:102270006EE281E022D1E1D16EE280E01EC165EE26
:1022800081E01BD16EE281E018D1D7D165EE80E00C
:1022900014D16EE280E011C165EE81E00ED161E300
:1022A00081E00BD1CAD165EE80E007D161E380E027
:1022B00004C166EE81E001D164E181E0FED0BDD1D0
:1022C00066EE80E0FAD064E180E0F7C01F93CF9320
:1022D000DF931F92CDB7DEB7182F882351F090916E
:1022E0006C029F5F90936C02862F69830E945D0849
:1022F000698190916C02923041F4112341F00F906A
:10230000DF91CF911F910C94650811110AC0915073
:1023100090936C02862F0F90DF91CF911F910C94B8
:1023200061080F90DF91CF911F91089561EE81E0D8
:10233000CDCF61EE80E0CACF65EE81E0C7CF65EE1C
:1023400080E0C4CF833411F483E07AC908958334E4
:1023500011F483E081C90895CF9391E0982734E583
:10236000639FF00111243EE0439FE00DF11D112415
:10237000E20FF11DEE0FFF1FE90FF11DEE0FFF1F22
:10238000E352FF4F259134912115310571F0C82F8B
:1023900080916D028C7F8B7F80936D02F90109958E
:1023A000CC2319F0CF910C945C04CF9108959F92A7
:1023B000AF92BF92CF92DF92EF92FF920F931F9353
:1023C000CF93DF93D62E242F811152C0E42FF0E05B
:1023D0009EE0699FD0011124ED01CE0FDF1FC85E82
:1023E000DD4F688194E5699FA00DB11D1124EA0FAE
:1023F000FB1FEE0FFF1FEE0FFF1FE152FF4F459136
:102400005491475F5E40A1F14D2D26C0939415D99C
:10241000891508F43CC0892D61D8F701C89EE00DEC
:10242000F11D1124EC0FFD1FEE0FFF1FE00FF11F38
:10243000EE0FFF1FE352FF4F25913491275F3E407F
:1024400029F3AA2029F0CE0DDF1DC85EDD4F888359
:102450002B2D4D2D682F8A2DDF91CF911F910F913C
:10246000FF90EF90DF90CF90BF90AF909F9074CF90
:10247000912CB22EA82EC22FD0E001E0082710E048
:102480008EE0D89E7001112484E5C82EC0CFDF9164
:10249000CF911F910F91FF90EF90DF90CF90BF9061
:1024A000AF909F900895CFD080E00895E3D091E061
:1024B000811101C090E0892F0895482F662309F407
:1024C0005BC0862F90E0FC01E05EF109E830F10589
:1024D000C0F5EA5AFF4F909178026EC3442311F081
:1024E000916005C09E7F03C0442329F092609093C1
:1024F000780280E008959D7FFACF442311F0946024
:10250000F6CF9B7FF4CF442311F09860F0CF977FF4
:10251000EECF442311F09061EACF9F7EE8CF4423B1
:1025200011F09062E4CF9F7DE2CF442311F09064DC
:10253000DECF9F7BDCCF442311F09068D8CF9F770C
:10254000D6CFE2E7F2E020E030E08081442339F0AA
:1025500081110CC0F901EE58FD4F60830895861378
:1025600005C0F901EE58FD4F1082C3CF2F5F3F4FDA
:1025700031962630310549F781E00895882391F19D
:10258000482F50E0FA01E05EF109E830F10508F566
:10259000E25AFF4F809178020FC3817008958695AB
:1025A0008170089582FB882780F9089583FB88272E
:1025B00080F9089582958170089585FB882780F9B8
:1025C000089586FB882780F90895881F8827881F2B
:1025D0000895E2E7F2E096E09E0F2191281721F09E
:1025E0009E13FBCF80E0089581E008958E34A1F022
:1025F0004CF48334A9F08B34F1F48091700282950D
:10260000817008958F3489F08335A9F48091700228
:1026100082FB882780F90895809170028170089567
:10262000809170028695817008958091700283FB7D
:10263000882780F9089580E008951FC08091E80000
:1026400080FFFCCF089581E08093D70080EA8093DB
:10265000D80082E189BD09B400FEFDCF80E98093F6
:10266000D8001092E000109279028CE08093E20092
:10267000789408958091790208958091790281116A
:1026800002C08FEF08958FB7F89493E09093E9001C
:102690009091E4009E5C23E03091E80035FD0EC08F
:1026A0008FBF80917902882361F38091E4008917BC
:1026B00041F38FB7F8942093E900EECF9091780220
:1026C0009093F1001092F100E2E7F2E096E09E0FA5
:1026D00021912093F1009E13FBCF9AE39093E800A1
:1026E000109271028FBF80E008951F920F920FB673
:1026F0000F9211248F939F93EF93FF938091E100AA
:102700001092E10083FF0FC01092E90091E09093D6
:10271000EB001092EC0092E29093ED0098E0909321
:10272000F0001092790282FF33C0809179028823F1
:1027300079F180910601882359F180916F028F5FB2
:1027400080936F02837021F583E08093E90080918C
:10275000E80085FF1DC0809171028F5F8093710238
:1027600090910601891314C0109271028091780231
:102770008093F1001092F100E2E7F2E086E08E0F24
:1027800091919093F1008E13FBCF8AE38093E80040
:10279000FF91EF919F918F910F900FBE0F901F901F
:1027A00018951F920F920FB60F921124EF92FF927D
:1027B0000F931F932F933F934F935F936F937F9349
:1027C0008F939F93AF93BF93EF93FF93CF93DF9339
:1027D0001F92CDB7DEB71092E9008091E80083FF29
:1027E0001FC19091F1008091F1003091F100209192
:1027F000F100E32EF12CF22A0091F1002091F1007A
:1028000010E0122B2091F1006091F10032EF309333
:10281000E800863009F046C037E08DE196E0FC0123
:10282000459154914E155F0539F4FC01329645915E
:1028300054914017510721F00796315081F7F0C0AD
:10284000FC01349645915491FC013696849130E018
:10285000362B2F3F310519F010F02FEF30E02817FD
:1028600008F4822F3EEF9091E800292F2570D9F3CC
:1028700092FDD9C0982F813208F090E2FA01292FF9
:10288000222331F064916093F10021503196F8CF0A
:10289000490F511D891B3093E8008111E4CF90321C
:1028A00011F3C1C0853049F48EEF8093E800C6DE95
:1028B0008E2D80688093E300B6C0893039F5911180
:1028C0006AC0E09279028EEF8093E80041E087E0F1
:1028D00097E04093E9009C012F5F3F4FFC0154912A
:1028E0005093EB00552359F0F90124912093EC000B
:1028F0009C012D5F3F4F319684918093ED004F5F97
:10290000453011F0C901E5CF8EE140C0883039F47F
:10291000903809F040C092DE809179025FC0811149
:1029200015C099838BDE9981923851F40093E900A8
:102930008091EB0085FB882780F91092E90001C0A7
:1029400080E08093F1001092F10066C0282F2D7F67
:10295000213009F59230F9F4EF2809F061C00F77C2
:102960009FEF900F943008F05BC09EEF9093E800CB
:102970000093E900833009F453C089E18093EB00B0
:1029800081E090E001C0880F0A95EAF78093EA00A1
:102990001092EA0048C0012B09F042C0913A09F5B3
:1029A000813089F44BDE809178028093F10010929F
:1029B000F100E2E7F2E086E08E0F91919093F10052
:1029C0008E13FBCF29C0823021F438DE80910601BE
:1029D00005C0833029F532DE809107018093F10034
:1029E0001BC09132E9F4893061F48091E80082FFE4
:1029F000FCCF8091F100809370028BEF8093E80010
:102A00000BC08A3029F4F09206011092710204C0C2
:102A10008B3031F4E09207018EEF8093E80003C021
:102A200081E28093EB000F90DF91CF91FF91EF91C6
:102A3000BF91AF919F918F917F916F915F914F91D6
:102A40003F912F911F910F91FF90EF900F900FBE2C
:102A50000F901F9018950E94280CC82F0E948D0B74
:102A600022DD21E030E0C11102C020E030E0282B5F
:102A7000C1E0232B09F4C0E019DD8823E9F30E94AB
:102A8000FE0B0E948804D0E0C82B0E94930BCD2B34
:102A900011F00E94990B0E949204855080937E024F
:102AA000CEE080910B0190910C0190937D02809378
:102AB0007C022091090130910A0130930C0120938E
:102AC0000B0190930A01809309010E949204909156
:102AD0007E02891B8530C8F30E94920480937E0297
:102AE00080910B0190910C010E94380C10922D03E3
:102AF00080912D03863058F510922C0340912C03C1
:102B000060912D034E30F8F4E0910B01F0910C012F
:102B1000C69F90011124240F311DE20FF31F808105
:102B200080937B02E0910901F0910A01E20FF31F0B
:102B3000908190937A0289133ADC80912C038F5F05
:102B400080932C03DBCF6F5F60932D03D1CF75DDB6
:102B50008091080180FF2DC08EE448DD882319F0A4
:102B60008EE4F0DB02C08EE4F2DB83E43FDD8823F9
:102B700019F083E4E7DB02C083E4E9DB83E536DDBB
:102B8000882319F083E5DEDB02C083E5E0DB8FE418
:102B90002DDD882319F08FE4D5DB02C08FE4D7DB6D
:102BA0008BE424DD882319F08BE4CCDB02C08BE4BA
:102BB000CEDB0E94300475CFEE0FFF1F0590F4911D
:102BC000E02D099433D088F09F5790F0B92F9927C2
:102BD000B751A0F0D1F0660F771F881F991F1AF028
:102BE000BA95C9F712C0B13081F03AD0B1E008957A
:102BF00037C0672F782F8827B85F39F0B93FCCF3FB
:102C0000869577956795B395D9F73EF4909580951D
:102C1000709561957F4F8F4F9F4F089557FD905846
:102C2000440F551F59F05F3F71F04795880F97FB90
:102C3000991F61F09F3F79F087950895121613064A
:102C40001406551FF2CF4695F1DF08C01616170679
:102C50001806991FF1CF86957105610508940895AE
:102C6000E894BB2766277727CB0197F908950BD007
:102C700078C069D028F06ED018F0952309F05AC0BA
:102C80005FC01124EECFCADFA0F3959FD1F3950F5B
:102C900050E0551F629FF001729FBB27F00DB11DE0
:102CA000639FAA27F00DB11DAA1F649F6627B00D70
:102CB000A11D661F829F2227B00DA11D621F739F59
:102CC000B00DA11D621F839FA00D611D221F749F67
:102CD0003327A00D611D231F849F600D211D822FAE
:102CE000762F6A2F11249F5750408AF0E1F08823F5
:102CF0004AF0EE0FFF1FBB1F661F771F881F915002
:102D00005040A9F79E3F510570F014C0AACF5F3F15
:102D1000ECF3983EDCF3869577956795B795F79534
:102D2000E7959F5FC1F7FE2B880F911D96958795BC
:102D300097F9089597F99F6780E870E060E008953B
:102D40009FEF80EC089500240A94161617061806C3
:102D50000906089500240A9412161306140605069F
:102D60000895092E0394000C11F4882352F0BB0F30
:102D700040F4BF2B11F460FF04C06F5F7F4F8F4F93
:102D80009F4F0895A0E0B0E0E7ECF6E1F8C1EC0158
:102D9000009719F4CB01C2D0B4C0FC01E60FF71FB5
:102DA0009C0122503109E217F30708F4A8C0D901A9
:102DB0000D911C91119706171707A8F00530110502
:102DC00008F49BC0C80104978617970708F495C0BC
:102DD00002501109061B170B019311936D937C93FD
:102DE000CF0131D18AC05B01A01AB10A4C01800E1B
:102DF000911EA0913003B091310340E050E0E12CEE
:102E0000F12C109709F44AC0A815B905D1F56D90B9
:102E10007C901197630182E0C80ED11CCA14DB04B8
:102E200080F1A3014A195B096A0182E0C80ED11C36
:102E30001296BC9012971396AC91B5E0CB16D104C4
:102E400040F0B282A38351834083D9016D937C9378
:102E50000AC00E5F1F4FC301800F911FF9019183BC
:102E60008083EB2DFA2FE114F10431F0D701139692
:102E7000FC93EE93129741C0F0933103E09330033B
:102E80003CC08D919C9111974817590708F4AC01EB
:102E90007D0112960D90BC91A02DB3CF80912E0391
:102EA00090912F0388159905E1F446175707C8F448
:102EB0008091000190910101009741F48DB79EB778
:102EC0004091040150910501841B950BE817F90707
:102ED000B0F4F0932F03E0932E03F9017183608324
:102EE0000CC0CB011BD07C01009749F0A801BE01AA
:102EF0000CD0CE01A8D0C70104C0CE0102C080E032
:102F000090E0CDB7DEB7EEE056C1FB01DC0102C0B8
:102F100001900D9241505040D8F70895CF93DF9320
:102F20008230910510F482E090E0E0913003F0915E
:102F3000310320E030E0C0E0D0E0309711F1408173
:102F4000518148175907C0F04817590761F4828129
:102F50009381209719F09B838A832BC09093310330
:102F60008093300326C02115310519F0421753070D
:102F700018F49A01BE01DF01EF010280F381E02D18
:102F8000DCCF2115310509F1281B390B243031051F
:102F900090F412968D919C9113976115710521F013
:102FA000FB019383828304C09093310380933003A9
:102FB000FD01329644C0FD01E20FF31F819391930E
:102FC000225031092D933C933AC020912E03309129
:102FD0002F03232B41F42091020130910301309300
:102FE0002F0320932E032091000130910101211520
:102FF000310541F42DB73EB74091040150910501D0
:10300000241B350BE0912E03F0912F03E217F307F9
:10301000A0F42E1B3F0B2817390778F0AC014E5F48
:103020005F4F2417350748F04E0F5F1F50932F0353
:1030300040932E038193919302C0E0E0F0E0CF0132
:10304000DF91CF9108950F931F93CF93DF93009754
:1030500009F48CC0FC013297138212820091300374
:10306000109131030115110581F420813181820F06
:10307000931F20912E0330912F032817390779F5DC
:10308000F0932F03E0932E0371C0D80140E050E08D
:10309000AE17BF0750F412962D913C911397AD01D6
:1030A0002115310509F1D901F3CF9D01DA013383EF
:1030B000228360817181860F971F8217930769F4BD
:1030C000EC0128813981260F371F2E5F3F4F318356
:1030D00020838A819B8193838283452B29F4F093FB
:1030E0003103E093300342C01396FC93EE931297A2
:1030F000ED01499159919E01240F351FE217F30705
:1031000071F480819181840F951F029611969C9392
:103110008E938281938113969C938E931297E0E015
:10312000F0E0D80112968D919C911397009719F0B9
:10313000F8018C01F6CF8D919C9198012E5F3F4F45
:10314000820F931F20912E0330912F0328173907E8
:1031500069F4309729F4109231031092300302C0C1
:103160001382128210932F0300932E03DF91CF91CD
:103170001F910F9108952F923F924F925F926F92FD
:103180007F928F929F92AF92BF92CF92DF92EF92F7
:10319000FF920F931F93CF93DF93CDB7DEB7CA1B78
:1031A000DB0B0FB6F894DEBF0FBECDBF09942A88A3
:1031B000398848885F846E847D848C849B84AA844B
:1031C000B984C884DF80EE80FD800C811B81AA81D8
:1031D000B981CE0FD11D0FB6F894DEBF0FBECDBFA3
:0831E000ED010895F894FFCF02
:1031E8000000320320007D01017F02D3022A2B2830
:1031F800000028000000000000000000000000009F
:1032080029000000002C1E342021222434262725E2
:103218002E362D3738000000000000000000003373
:1032280033362E3738000000000000000000000090
:1032380000001F0000000000000000000000000067
:103248002F3130232D350000000000000000000061
:103258000000000000000000000000000000000066
:103268002F3130354C000000000000000000000045
:103278000000000000000000000000000000010144
:10328800010101010001010101000000000000002E
:103298000000000000000001000100010100000022
:1032A8000000000000000000000001000000000015
:1032B8000000000000000000000000010100000004
:1032C80000000000000000000000000000000000F6
:0E32D8000000000000000000010101010000E4
:00000001FF
